:020000040800F2
:10000000680D00202902000819190008B11600081F
:100010001519000899040008351C000800000000AC
:10002000000000000000000000000000211900088E
:100030009D040008000000001D1900082519000893
:10004000430200084302000843020008430200087C
:10005000430200084302000843020008430200086C
:10006000430200084302000843020008430200085C
:10007000430200084302000843020008430200084C
:10008000430200084302000843020008430200083C
:10009000430200084302000843020008430200082C
:1000A00043020008E919000843020008430200085F
:1000B000F91900084302000843020008430200083F
:1000C00043020008430200084302000843020008FC
:1000D00043020008430200084302000843020008EC
:1000E00043020008430200084302000843020008DC
:1000F00043020008430200084302000843020008CC
:1001000043020008430200084302000843020008BB
:1001100043020008430200084302000843020008AB
:10012000430200084302000843020008430200089B
:100130004302000800000000000000004302000825
:10014000430200084302000843020008430200087B
:10015000430200084302000843020008430200086B
:10016000430200084302000843020008430200085B
:1001700043020008430200080000000000000000E5
:10018000430200084302000800F002F800F03CF8C7
:100190000AA090E8000C82448344AAF10107DA45E2
:1001A00001D100F031F8AFF2090EBAE80F0013F0F8
:1001B000010F18BFFB1A43F001031847341B00005E
:1001C000541B0000103A24BF78C878C1FAD85207EF
:1001D00024BF30C830C144BF04680C6070470000C1
:1001E0000023002400250026103A28BF78C1FBD840
:1001F000520728BF30C148BF0B6070471FB501F0E0
:1002000056FD1FBD10B510BD00F0D0F81146FFF728
:10021000F5FF01F039FD00F0EEF803B4FFF7F2FF4F
:1002200003BC00F0F5F80000094880470948004782
:10023000FEE7FEE7FEE7FEE7FEE7FEE7FEE7FEE796
:10024000FEE7FEE704480549054A064B70470000F3
:10025000D51900088901000868010020680D0020F8
:10026000680900206809002053EA020C00F0698048
:100270002DE9F04B4FF00006002B1FBFB3FA83F5BA
:1002800003FA05F424FA05F65E4012BF1643B2FAEB
:1002900082F502FA05F4C5F120051EBF22FA05FC1D
:1002A00044EA0C04203556EA044C4FEA144418BFC3
:1002B000641C4FF000084FF00009904271EB030CF2
:1002C00039D3002919BFB1FA81F701FA07F6B0FA5C
:1002D00080F700FA07F6C7F120071EBF20FA07FCD7
:1002E00046EA0C062037B6FBF4FCA7EB0507103FE7
:1002F00007F01F0BCBF120062CFA06F60CFA0BFBCD
:1003000044BFB3460026202FA4BF5E464FF0000B2B
:100310005BEA060C08BF4FF0010B19EB0B0948EB29
:100320000608ABFB027C06FB02CC0BFB03CCC01B1C
:1003300071EB0C01C1E70B46024641464846BDE859
:10034000F08B13B5084318BF4FF0FF300146AFF3F1
:100350000080BDE81C4070474FF0000200B5134616
:1003600094469646203922BFA0E80C50A0E80C50D5
:10037000B1F12001BFF4F7AF090728BFA0E80C5086
:1003800048BF0CC05DF804EB890028BF40F8042B7F
:1003900008BF704748BF20F8022B11F0804F18BFEC
:1003A00000F8012B7047704770477047754600F0A2
:1003B0002BF8AE4605006946534620F007008546F7
:1003C00018B020B5FFF73EFFBDE820404FF0000613
:1003D0004FF000074FF000084FF0000BAC46ACE8C0
:1003E000C009ACE8C009ACE8C009ACE8C00921F01C
:1003F00007018D46704710B50446AFF300802046D4
:10040000BDE81040FFF709BF0048704728000020F2
:1004100001491820ABBEFEE726000200704700002D
:1004200010B50024C4F2020420464FF4807101226A
:1004300000F01EF9C82000F037F820464FF4807114
:10044000002200F015F9C82000F02EF820464FF4E5
:100450008071012200F00CF9322000F025F82046CE
:100460004FF48071002200F003F9322000F01CF8F4
:1004700020464FF48071012200F0FAF8322000F09B
:1004800013F820464FF48071002200F0F1F832207A
:1004900000F00AF810BD0000FEE700007047000001
:1004A00072B600BFFEE70000B0B5044600F0E6F803
:1004B000054640F21C00C2F200000078611C18BF23
:1004C000044400BF00F0DAF8401BA042FAD3B0BDEC
:1004D0002DE9F04F82B000F13E4241F6004502F1B5
:1004E000FF77C4F2020508224FEAB726A84208BFE8
:1004F0000722072E38BF4FEAB7224FF0010A002427
:1005000000274FF00009009209E000BF09F101093E
:100510000437B9F1100F04F1020400F0A6800A6854
:100520000AFA09FC12EA0C08F0D0D1F804B00BF07A
:10053000030AAAF10102012A12D882680323CE68B5
:1005400003FA04FE22EA0E02A640324382604268A9
:10055000CBF3001622EA0C0206FA09F63243426097
:10056000BAF1030F1DD0C26803238D6803FA04F6A5
:10057000B24305FA04F63243BAF1020FC26010D159
:100580006FF0030202EA59020244D2F820C007F0D9
:100590001C050F230E69AB402CEA0303AE40334326
:1005A0001362026803234E68A3409A4306F00303D4
:1005B000A3401A4316F4403F4FF0010A0260A5D051
:1005C000002243F644030192C4F202031A6843F680
:1005D000004E42F480421A601A68C4F2010E02F41E
:1005E00080420192019A29F003024FF6084C7244AE
:1005F000CFF6FF7C52F80C3007F00C060F25B54003
:10060000AB43009D05FA06F6334342F80C30DEF8A2
:1006100008204B6842EA080643F60C4CDD0258BF3E
:1006200022EA0806CEF80860C4F2010CDCF80020CB
:100630009D0242EA080658BF22EA0806CCF800608C
:10064000DEF804209D0342EA080658BF22EA0806A5
:10065000CEF80460DEF80020DB0342EA080658BF4B
:1006600022EA0806CEF8006050E702B0BDE8F08F3D
:10067000002A08BF090481617047000040F2601041
:10068000C2F200000068704740F21C0040F26011A6
:10069000C2F20000C2F2000100780A68104408604B
:1006A0007047000080B543F60040C4F202000168C4
:1006B00041F400710160016841F4806101600168EA
:1006C00041F480710160032000F0B2F80F2000F0C7
:1006D00005F800F055F8002080BD0000B0B586B0E8
:1006E000002543F644010195C4F202010A6804465C
:1006F00042F001020A60096801A801F001010191BC
:100700000199694600F054F900F072F94DF68361E1
:100710004000C4F21B31A0FB01014FF0FF3000EBA1
:10072000914140F288000022C2F20000C4F20102AE
:1007300040F2E733C0E90021C0E902530561856159
:1007400000F0A2FB0546C0B940F28800C2F20000EA
:1007500000F0FEFB054680B9192000F02DF80F2CA3
:100760000AD819202146002200F036F840F2200075
:10077000C2F20000046000E00125284606B0B0BDCA
:1007800082B0002043F640010190C4F202014A68A1
:1007900042F480424A604A6802F480420192019A1F
:1007A0000090086840F080500860086800F08050B1
:1007B0000090009802B07047002848BF704700F0D2
:1007C0001F01012202FA01F14EF200124009CEF29D
:1007D000000242F82010704710B54EF60C5CCEF2C5
:1007E000000CDCF80030C3F3022E8EF00704042C5A
:1007F00028BF0424BEF103034FF0FF3E0EFA04F4B9
:1008000038BF0023A14399400EFA03F39A4300F046
:100810000F03043B1143634409010C3300F16042B0
:10082000B0F1FF3FC8BF02F56443197010BD00006E
:100830004EF60C51CEF200010A684FF6FF031A4043
:1008400060F30A2242F0806040F0FD70086070475B
:100850002DE9F041002800F08B8043F60808C4F22F
:1008600002080446D8F8F8030D4600F00700884255
:1008700007D288F8F853D8F8F80300F00700A84228
:1008800076D12068810717D5410705D5D8F8001023
:1008900041F4E051C8F80010010705D5D8F8001060
:1008A00041F46041C8F80010D8F80010A26821F0A7
:1008B000F0011143C8F80010C0073FD1D8F8F80381
:1008C00000F00700A84207D988F8F853D8F8F803D1
:1008D00000F00700A8424BD12068410707D5D8F89F
:1008E0000010E26821F4E0511143C8F8001000073D
:1008F00008D5D8F80000216920F4604040EAC10022
:10090000C8F8000000F088F8D8F8001041F6C84296
:10091000C1F30311C0F60002515C40F2000220FA5C
:1009200001F140F22000C2F200000068C2F20002B1
:100930001160FFF7D3FE0020BDE8F0816068811EE2
:10094000022907D258F8081C89015CBF0120BDE8C4
:10095000F08110E0012807D158F8081C89035CBF1A
:100960000120BDE8F08106E058F8081C890702D490
:100970000120BDE8F081D8F8001021F00301084300
:10098000C8F80000FFF77AFE064641F2883700BF3C
:10099000D8F80000616800F00C00B0EB810F8DD03A
:1009A000FFF76CFE801BB842F2D90320BDE8F0814E
:1009B0000F22026043F60802C4F20202136803F039
:1009C00003034360136803F0F0038360136803F4C8
:1009D000E053C360D2F800C04FF4E05303EADC03F5
:1009E0000361D2F8F80300F00700086070470000C8
:1009F00040F2000043F60801C2F20000C4F2020116
:100A00000068096841F6D842C1F34231C0F60002DD
:100A1000515CC8407047000010B543F60404C4F2AE
:100A20000204606800F00C0008280AD0042819BFEE
:100A300042F20040C0F2F40047F64000C0F27D10E0
:100A400010BD206821682368490247F64001C0F2C2
:100A50007D1100F03F02C3F388105CBF42F20041F9
:100A6000C0F2F401A1FB00010023FFF7FDFB2168A8
:100A70000222C1F3014102EB4101B0FBF1F010BDD4
:100A80002DE9F04182B0002800F0A28004460078F1
:100A900043F60006C007C4F2020643D0B06800F077
:100AA0000C00042805D1306880033BD56068C8BBC2
:100AB0008EE0B06800F00C00082802D17068400297
:100AC000F1D46568B5F5A02F0AD0B5F5803F0BD0FD
:100AD000306820F480303060306820F4802006E0F8
:100AE000306840F480203060306840F480303060FE
:100AF000FFF7C4FD002D054611D000BF306880030C
:100B000010D4FFF7BBFD401B6428F7D922E100BFDA
:100B1000FFF7B4FD401B64284FF0030055D8306840
:100B20008003F5D4207880071AD5B06810F00C0F38
:100B300009D0B06800F00C00082840F08A80706886
:100B4000400200F186803068800702D5E068012805
:100B50003ED13068216920F0F80040EAC1003060E1
:100B60002078000738D4207840074CD4A5695DB3BD
:100B7000B06800F00C00082840F09E80012D27D0BE
:100B80007068E16900F480028A4221D1216A00F094
:100B90003F028A421CD147F6C071626A0140B1EB44
:100BA000821F15D1A26A0023CFF6FF7303EBC23276
:100BB00000F440316FF30F02914209D1E16A00F075
:100BC0007060B0EB016F03D1002002B0BDE8F0818E
:100BD000012002B0BDE8F0816069002840F2000009
:100BE000C4F2472057D00121C0F8801EFFF746FD10
:100BF000054600BF706F8007B5D4FFF73FFD401B6F
:100C00000228F7D9A6E0306C10F080580AD10020F5
:100C10000190306C40F080503064306C00F08050B7
:100C20000190019847F20007C4F200073868C00538
:100C300024D4386840F480703860FFF71FFD054603
:100C40003868C0051AD4FFF719FD401B0228F7D9F0
:100C500080E0E068002851D00020C4F24720012144
:100C60000160FFF70BFD0546306880073FF571AF67
:100C7000FFF704FD401B0228F6D96BE0A568052D9F
:100C800050D0012D52D0306F20F001003067306F0E
:100C900020F004004DE00021C0F8801EFFF7EEFCBC
:100CA000054600BF706F80077FF55DAFFFF7E6FC7C
:100CB000401B0228F6D94DE00027C4F24727002048
:100CC0003866FFF7DBFC022D05460BD1306880014A
:100CD00058D5FFF7D3FC401B02284FF00300F5D98D
:100CE00073E700BF306880017FF56EAFFFF7C6FC89
:100CF000401B02284FF00300F4D966E70020C4F23D
:100D0000472000210160FFF7B9FC054630688007E5
:100D10007FF526AFFFF7B2FC401B02284FF003001F
:100D2000F4D952E7306F40F004003067306F40F084
:100D300001003067FFF7A2FC002D054641F288371D
:100D400014D000BF306F800713D4FFF797FC401B0F
:100D5000B842F7D9032002B0BDE8F081FFF78EFC5E
:100D6000401BB8424FF003003FF62FAF306F8007B3
:100D7000F4D4B8F1000F7FF4F9AE306C20F080505D
:100D80003064F3E604F11C052FCD08430021CFF6B3
:100D9000FF7140EA821001EBC3316FF30F0140EAAB
:100DA00005600843706001203866FFF767FC044661
:100DB000306880013FF508AFFFF760FC001B022898
:100DC0004FF00300F4D900E77047000070470000BF
:100DD00010B590F83C20012A4FF0020252D00123B6
:100DE00080F83C3080F83D200268D2F804E0D2F868
:100DF00008C00C682EF07003234341F2FF74C4F264
:100E00000004A24253600DDC40F2FF73C4F2000301
:100E10009A4215DCB2F1804F29D040F20043C4F26F
:100E2000000322E040F2FF33C4F201039A4212DCD5
:100E300041F60003C4F200039A4218D0002312E0E6
:100E400040F60003C4F200039A4210D040F600437B
:100E5000C4F2000309E044F20003C4F201039A4221
:100E600005D040F20043C4F201039A4204D149681C
:100E70002CF08003194391600121002280F83D107D
:100E800080F83C20104610BD002804BF01207047A8
:100E900010B5044690F83D0028B9002084F83C00C5
:100EA000204600F01FF8022084F83D002068211D34
:100EB00000F0AAFD012084F8460084F83E0084F882
:100EC0003F0084F8400084F8410084F8420084F830
:100ED000430084F8440084F8450084F83D00002075
:100EE00010BD000080B582B0006840F20041C4F23D
:100EF000000188421BD0B0F1804F27D10020019023
:100F000043F64000C4F202000168002241F00101F2
:100F100001600068052100F00100019001981C208B
:100F2000FFF75AFC1C20FFF747FC02B080BD0020F1
:100F3000009043F64000C4F20200016841F0020153
:100F40000160006800F002000090009802B080BDCF
:100F500090F83D1001291CBF01207047022180F844
:100F60003D10006841F2FF72C168C4F20002904275
:100F700041F00101C1600DDC40F2FF71C4F20001DB
:100F8000884215DCB0F1804F29D040F20041C4F214
:100F9000000122E040F2FF31C4F20101884212DC7C
:100FA00041F60001C4F20001884218D0002112E08D
:100FB00040F60001C4F20001884210D040F6004122
:100FC000C4F2000109E044F20001C4F201018842C8
:100FD00005D040F20041C4F20101884206D1816887
:100FE00001F00701062904BF00207047016841F0A5
:100FF000010101600020704780B590F83C20012A73
:101000004FF0020200F0C280012380F83C3080F8EB
:101010003D20D0F800C04FF67772DCF8083023EAA4
:101020000202CCF808200B684F2B28DC1F2B43DD75
:10103000202B44D0302B42D0402B40F0A980D1F857
:1010400004E0C968DCF82030DCF8202022F001023E
:10105000CCF82020DCF8182022F0F00242EA01113E
:1010600023F00A0242EA0E02CCF81810CCF8202035
:10107000DCF8081041F0470121F030017DE06F2BD2
:1010800025DDB3F5005F46D0B3F5805F77D0702BD8
:101090007ED1D1E901E3C968DCF8082043EA0E03F8
:1010A00022F47F4243EA01211143CCF80810DCF816
:1010B000081041F0770160E00BB1102B68D1DCF82B
:1010C000081021F07001194341F0070155E0502B41
:1010D00034D0602B5CD1D1F804E0C968DCF8203052
:1010E000DCF8202022F01002CCF82020DCF81820B8
:1010F00022F4704242EA013123F0A00242EA0E12C9
:10110000CCF81810CCF82020DCF8081041F067016A
:1011100021F0100131E0D1E901E3C968DCF80820D1
:1011200043EA0E0322F47F4243EA01211143CCF843
:101130000810DCF8081041F480411EE0D1F804E00A
:10114000C968DCF82030DCF8202022F00102CCF85D
:101150002020DCF8182022F0F00242EA011123F0EE
:101160000A0242EA0E02CCF81810CCF82020DCF873
:10117000081041F0570121F02001CCF8081000229E
:10118000012180F83D10002180F83C10104680BD00
:101190000122F5E77047000070B504460068C56895
:1011A0000669B10716D515F0020113D06FF00201E0
:1011B0000161012121778069800703D02046FFF774
:1011C000E9FF05E0204600F08BF8204600F0C6F964
:1011D00000202077700718D515F0040015D020687E
:1011E0006FF00401016102212177806910F4407FD2
:1011F00003D02046FFF7CEFF05E0204600F070F850
:10120000204600F0ABF900202077300717D515F005
:10121000080014D020686FF00801016104212177D3
:10122000C069800703D02046FFF7B4FF05E02046E1
:1012300000F056F8204600F091F900202077F006E3
:1012400018D515F0100015D020686FF0100101615D
:1012500008212177C06910F4407F03D02046FFF7B2
:1012600099FF05E0204600F03BF8204600F076F9B3
:1012700000202077F00718BF15F0010002D13006DA
:1012800009D412E020686FF001010161204600F0EE
:10129000FFF9300609D515F0800006D020686FF000
:1012A000800101612046FFF78FFD700609D515F01A
:1012B000400006D020686FF040010161204600F038
:1012C000F5F9B0060AD515F0200008BF70BD2068FA
:1012D0006FF0200101612046FFF778FD70BD00002E
:1012E000704700002DE9F04190F83C30012B04BF1D
:1012F0000220BDE8F0814FEAB2020123032A80F800
:101300003C3000F2F480DFE802F0023E7DBC03686E
:1013100040F200471C6A1A6A24F0020422F001021B
:101320001A621A46D3F804E052F818CF8E6843F4D4
:101330008065C4F20107BD4244EA060405D1CE68C7
:1013400024F00C0426F0040634430E68BD4207D195
:10135000D1E905572EF4407E45EA0E0545EA070E11
:101360002CF073073743C3F804E09F614F680969A5
:101370005F631C629F6947F008079F619F6927F0C0
:1013800004079F61AFE0036840F200481C6A1A6AD4
:1013900024F0200422F010021A621A46D3F804E066
:1013A00052F818CF8F6843F48065C4F201084545B0
:1013B00044EA071407D1CF686FF0400624F0C00458
:1013C00006EA071634430F68454507D1D1E90556AB
:1013D0002EF4406E4EEA850545EA860E2CF4E6466C
:1013E00046EA0727C3F804E09F614F6809699F63D5
:1013F0001C629F6947F400679F619F6927F48067BB
:101400009F616FE0036840F200481C6A1A6A24F486
:10141000007422F480721A621A46D3F804E052F87B
:101420001CCF8F6843F48065C4F20108454544EA47
:10143000072408D1CF6840F2FF463F0224F44064FD
:1014400027EA060634430F68454507D1D1E905561A
:101450002EF4405E4EEA051545EA061E2CF0730692
:101460003743C3F804E0DF614F680969DF631C623A
:10147000DF6947F00807DF61DF6927F00407DF61F4
:1014800031E0036840F20045D3F820C01A6A43F403
:10149000806722F480521A621A465C6852F81CEF88
:1014A000D1F800808E68C4F20105AF4204D14D69C5
:1014B00024F4804444EA85142CF4005747EA0637A4
:1014C0002EF4E64646EA08265C60DE614E6809694D
:1014D0001E641F62DF6947F40067DF61DF6927F47C
:1014E0008067DF610902136819430023116000213E
:1014F00080F83C101846BDE8F0810000002804BFC9
:101500000120704710B5044690F83D0028B900202E
:1015100084F83C00204600F01FF8022084F83D00CB
:101520002068211D00F070FA012084F8460084F83C
:101530003E0084F83F0084F8400084F8410084F8BD
:10154000420084F8430084F8440084F8450084F89D
:101550003D00002010BD00007047000070470000F3
:1015600041B1082909D0042914BF00F1410200F15A
:101570003F0204E000F13E0201E000F14002127877
:10158000012A1CBF01207047022241B1082909D05D
:10159000042914BF80F8412080F83F2004E080F83F
:1015A0003E2001E080F84020006801F01F01012288
:1015B000036A02FA01F123EA01020262026A0A43A3
:1015C00041F2FF71C4F20001884202620FDC40F276
:1015D000FF71C4F20001884217DCB0F1804F49D09E
:1015E00040F20041C4F20001884243D049E040F299
:1015F000FF32C4F20102904214DC41F60003C4F24F
:101600000003984236D0002314E040F60001C4F2F3
:10161000000188422ED040F60041C4F20001884209
:1016200028D02EE044F20003C4F20103984221D0F6
:1016300040F20043C4F20103984222D1436C884235
:1016400043F400434364C2DD904207DC41F60001ED
:10165000C4F2000188420DD0002107E044F20001ED
:10166000C4F20101884205D040F20041C4F20101F8
:10167000884206D1816801F00701062904BF0020D5
:101680007047016841F001010160002070470000CF
:1016900010B5044600680021C4F20101884208BF69
:1016A000FEF7F2FF204600F045FA10BD704700003B
:1016B000FEE7000070B586B0002543F630000595C2
:1016C000CDE90355CDE901550095C4F2020001684A
:1016D000002441F0800101600168C4F2020401F0BD
:1016E00080010091009900950168002241F00101FC
:1016F000016001684FF4987601F0010100910099B2
:101700000095016841F00401016000684FF4987190
:1017100000F00400009000982046FEF7A9FF022088
:10172000CDE9030501AD0196012620462946029622
:10173000FEF7CEFE4FF4006001904FF44410CDE967
:10174000020604F500602946FEF7C2FE06B070BD31
:1017500080B586B040F2D0000021C2F200004FF008
:101760008042532340F2CF7CCDE90411CDE9021130
:10177000CDE90011C0E90023C0E9021C01618161CB
:10178000FFF782FB002818BFFEF78AFE4FF4805057
:10179000029040F2D000C2F2000002A9FFF72CFC38
:1017A000002818BFFEF77CFE0020CDE9000040F2C3
:1017B000D000C2F200006946FFF70AFB002818BFFC
:1017C000FEF76EFE40F2D000C2F20000FFF7C0FB51
:1017D000002818BFFEF764FE06B080BD70B594B057
:1017E00040F2181040F200450021C2F2000040F221
:1017F000E733C4F200050D91CDE90B11CDE90911D4
:10180000CDE90711CDE90511CDE90311CDE90111AC
:101810005322C0E9021301618021C0E900528161B5
:10182000FFF732FB002818BFFEF73AFE4FF4805056
:101830000A9040F21810C2F200000AA9FFF7DCFB80
:10184000002818BFFEF72CFE40F21810C2F200006C
:10185000FFF754FE002818BFFEF722FE40F21810D2
:101860000024C2F2000008A9CDE90844FFF7B0FA4D
:10187000002818BFFEF714FE6020CDE9010440F2F5
:101880001810C2F2000001A9002203940594FFF78A
:1018900029FD002818BFFEF703FE40F21814C2F21B
:1018A000000401A920460422FFF71CFD002818BFF0
:1018B000FEF7F6FD204600210026FFF751FE2046E8
:1018C0000421FFF74DFE20681396A842CDE911666A
:1018D00010960F9601D014B070BD43F630000E96EE
:1018E000C4F20200016841F00101016000680FA923
:1018F00000F001000E900E98C0200F900220CDE95C
:101900001006CDE9126005F5FE30FEF7E1FD14B0DA
:1019100070BD0000FEE70000FEE700007047000019
:10192000704700007047000070B592B006AC2046CA
:101930003021FEF711FD002543F640000595CDE965
:101940000355CDE901550095C4F202000168022655
:1019500041F080510160006800F0805000900098D4
:1019600047F200000095C4F20000016841F4804194
:101970000160006800F4804000900098012006900B
:101980004FF4803007904FF480000D9019200E9096
:101990004FF4A870CDE90F060420119020460C9654
:1019A000FFF76EF808B172B6FEE70F20CDE9010629
:1019B0004FF4A05004904FF48050059001A80521E9
:1019C0000395FEF745FF10B172B600BFFEE712B0F7
:1019D00070BD00004EF68850CEF20000016841F460
:1019E000700101607047000080B540F28800C2F2CB
:1019F0000000FFF7D1FB80BD80B540F2D000C2F2FD
:101A00000000FFF7C9FB80BDB0B540F6FF3E05689A
:101A1000C4F2000E40F2004C7045C4F2010C0FDC21
:101A2000B0F1804F19D040F20043C4F20003984255
:101A300013D040F60003C4F2000398420DD011E029
:101A400040F60043C4F20003984206D0604504D03B
:101A50000023C4F20103984204D14B6825F07002C0
:101A600043EA020541F6FF73C4F2000398420DDC1D
:101A700070451FDCB0F1804F41D040F20043C4F20A
:101A8000000398423BD040F6000321E043F6FF7389
:101A9000C4F20103984220DC42F20003C4F20003C6
:101AA00098422CD00023C4F20103984227D060450D
:101AB00025D029E040F60043C4F2000398421ED02E
:101AC00041F60003C4F20003984218D041F60043E7
:101AD000C4F20003984212D016E044F20003C4F2AC
:101AE000010398420BD044F60003C4F2010398426C
:101AF00005D044F20043C4F20103984204D1CB68FC
:101B000025F4407243EA02050A688C684B69C46296
:101B100040F480648262644504BF0969016302681D
:101B200025F0800142F00402194302600122426163
:101B30000160B0BDB0B50068B0F1804F00D0B0BD5D
:101B400040F20404C2F20004E07C90B1E08AA18A71
:101B500088421CD3A07C70B10020C4F202004FF474
:101B6000807100220025FEF783FDA574E582E574EF
:101B70000DE000200DE00020C4F202004FF480715F
:101B800001220125FEF774FD0020A574E082E08AA1
:101B90000230E082207810B1A0880230A080207C42
:101BA000022809D0012816D0A0BB002000F044F87C
:101BB000012000F041F82DE0207A618901220028FF
:101BC00008BF4FF0FF32881860816089C0087C2808
:101BD00013D9002014E0E089A18988421AD3E17961
:101BE000A079F9B100F028F80020E071A179012274
:101BF00022EA0101A171E0810CE0608908B90120AD
:101C0000207240F21811C2F200016089096848632D
:101C100060898863207C002808BFB0BDE08902305D
:101C2000E081B0BD00F01CF80120E0710020E081EF
:101C3000F0E70000FEE70000012888BF704780B58C
:101C400041F6E041C0F6000101EBC00251F830005E
:101C500091880022FEF70CFDBDE88040704700002F
:101C6000012888BF704780B541F6E041C0F6000109
:101C700001EBC00251F8300091880122FEF7F8FC18
:101C8000BDE8804070470000FEF70CFDFFF74CFEFA
:101C9000FFF710FDFFF75CFDFFF7A0FD40F2D0005D
:101CA000C2F20000FFF754F9FEF7BAFBFEE7F1EECF
:101CB000100A4FF6FF71C0F2C03120EA010040F077
:101CC0004070E1EE100A70470000000000000000C4
:101CD00001020304060708090000000001020304D2
:101CE0000000024020000000000002401000000040
:101CF000101D00080000002028000000C40100089A
:101D0000381D000828000020400D0000E0010008F8
:101D10000024F4000000E8030000000001000000BF
:101D2000640000000000000032000000010000001C
:081D300010000000000000009B
:040000050800018965
:00000001FF
